{
  "_format": "hh-sol-artifact-1",
  "contractName": "CharityRegistry",
  "sourceName": "contracts/CharityRegistry.sol",
  "abi": [
    {
      "inputs": [],
      "stateMutability": "nonpayable",
      "type": "constructor"
    },
    {
      "anonymous": false,
      "inputs": [
        {
          "indexed": true,
          "internalType": "uint256",
          "name": "charityId",
          "type": "uint256"
        },
        {
          "indexed": false,
          "internalType": "string",
          "name": "name",
          "type": "string"
        },
        {
          "indexed": false,
          "internalType": "string",
          "name": "mission",
          "type": "string"
        },
        {
          "indexed": false,
          "internalType": "string",
          "name": "website",
          "type": "string"
        },
        {
          "indexed": false,
          "internalType": "bool",
          "name": "active",
          "type": "bool"
        },
        {
          "indexed": false,
          "internalType": "address payable",
          "name": "wallet",
          "type": "address"
        }
      ],
      "name": "CharityAdded",
      "type": "event"
    },
    {
      "anonymous": false,
      "inputs": [
        {
          "indexed": true,
          "internalType": "uint256",
          "name": "charityId",
          "type": "uint256"
        },
        {
          "indexed": false,
          "internalType": "string",
          "name": "name",
          "type": "string"
        },
        {
          "indexed": false,
          "internalType": "string",
          "name": "mission",
          "type": "string"
        },
        {
          "indexed": false,
          "internalType": "string",
          "name": "website",
          "type": "string"
        },
        {
          "indexed": false,
          "internalType": "bool",
          "name": "active",
          "type": "bool"
        },
        {
          "indexed": false,
          "internalType": "address payable",
          "name": "wallet",
          "type": "address"
        }
      ],
      "name": "CharityUpdated",
      "type": "event"
    },
    {
      "anonymous": false,
      "inputs": [
        {
          "indexed": true,
          "internalType": "uint256",
          "name": "charityId",
          "type": "uint256"
        },
        {
          "indexed": false,
          "internalType": "address",
          "name": "donor",
          "type": "address"
        },
        {
          "indexed": false,
          "internalType": "uint256",
          "name": "amount",
          "type": "uint256"
        }
      ],
      "name": "DonationMade",
      "type": "event"
    },
    {
      "inputs": [
        {
          "internalType": "string",
          "name": "name",
          "type": "string"
        },
        {
          "internalType": "string",
          "name": "mission",
          "type": "string"
        },
        {
          "internalType": "string",
          "name": "website",
          "type": "string"
        },
        {
          "internalType": "bool",
          "name": "active",
          "type": "bool"
        },
        {
          "internalType": "address payable",
          "name": "wallet",
          "type": "address"
        }
      ],
      "name": "addCharity",
      "outputs": [],
      "stateMutability": "nonpayable",
      "type": "function"
    },
    {
      "inputs": [
        {
          "internalType": "uint256",
          "name": "",
          "type": "uint256"
        }
      ],
      "name": "charities",
      "outputs": [
        {
          "internalType": "string",
          "name": "name",
          "type": "string"
        },
        {
          "internalType": "string",
          "name": "mission",
          "type": "string"
        },
        {
          "internalType": "string",
          "name": "website",
          "type": "string"
        },
        {
          "internalType": "uint256",
          "name": "totalDonation",
          "type": "uint256"
        },
        {
          "internalType": "bool",
          "name": "active",
          "type": "bool"
        },
        {
          "internalType": "address payable",
          "name": "wallet",
          "type": "address"
        }
      ],
      "stateMutability": "view",
      "type": "function"
    },
    {
      "inputs": [],
      "name": "charityIdCounter",
      "outputs": [
        {
          "internalType": "uint256",
          "name": "",
          "type": "uint256"
        }
      ],
      "stateMutability": "view",
      "type": "function"
    },
    {
      "inputs": [
        {
          "internalType": "uint256",
          "name": "",
          "type": "uint256"
        }
      ],
      "name": "charityIds",
      "outputs": [
        {
          "internalType": "uint256",
          "name": "",
          "type": "uint256"
        }
      ],
      "stateMutability": "view",
      "type": "function"
    },
    {
      "inputs": [
        {
          "internalType": "string",
          "name": "_a",
          "type": "string"
        },
        {
          "internalType": "string",
          "name": "_b",
          "type": "string"
        }
      ],
      "name": "compareStrings",
      "outputs": [
        {
          "internalType": "bool",
          "name": "",
          "type": "bool"
        }
      ],
      "stateMutability": "pure",
      "type": "function"
    },
    {
      "inputs": [
        {
          "internalType": "uint256",
          "name": "charityId",
          "type": "uint256"
        }
      ],
      "name": "donate",
      "outputs": [],
      "stateMutability": "payable",
      "type": "function"
    },
    {
      "inputs": [],
      "name": "owner",
      "outputs": [
        {
          "internalType": "address",
          "name": "",
          "type": "address"
        }
      ],
      "stateMutability": "view",
      "type": "function"
    },
    {
      "inputs": [
        {
          "internalType": "uint256",
          "name": "charityId",
          "type": "uint256"
        },
        {
          "internalType": "string",
          "name": "name",
          "type": "string"
        },
        {
          "internalType": "string",
          "name": "mission",
          "type": "string"
        },
        {
          "internalType": "string",
          "name": "website",
          "type": "string"
        },
        {
          "internalType": "bool",
          "name": "active",
          "type": "bool"
        },
        {
          "internalType": "address payable",
          "name": "wallet",
          "type": "address"
        }
      ],
      "name": "updateCharity",
      "outputs": [],
      "stateMutability": "nonpayable",
      "type": "function"
    },
    {
      "inputs": [
        {
          "internalType": "uint256",
          "name": "charityId",
          "type": "uint256"
        },
        {
          "internalType": "string",
          "name": "name",
          "type": "string"
        },
        {
          "internalType": "string",
          "name": "mission",
          "type": "string"
        },
        {
          "internalType": "string",
          "name": "website",
          "type": "string"
        },
        {
          "internalType": "bool",
          "name": "active",
          "type": "bool"
        },
        {
          "internalType": "address payable",
          "name": "wallet",
          "type": "address"
        }
      ],
      "name": "updateCharityAllowInactive",
      "outputs": [],
      "stateMutability": "nonpayable",
      "type": "function"
    }
  ],
  "bytecode": "0x608060405234801561001057600080fd5b5033600360006101000a81548173ffffffffffffffffffffffffffffffffffffffff021916908373ffffffffffffffffffffffffffffffffffffffff160217905550611a89806100616000396000f3fe6080604052600436106100865760003560e01c8063c8e22ed711610059578063c8e22ed714610159578063e00909e614610182578063f14faf6f146101ab578063f774ffda146101c7578063fb709d2e146101f257610086565b80634dbde3011461008b5780638a448e64146100b45780638da5cb5b146100f1578063bed34bba1461011c575b600080fd5b34801561009757600080fd5b506100b260048036038101906100ad9190611278565b610234565b005b3480156100c057600080fd5b506100db60048036038101906100d69190611359565b61050a565b6040516100e89190611395565b60405180910390f35b3480156100fd57600080fd5b5061010661052e565b60405161011391906113d1565b60405180910390f35b34801561012857600080fd5b50610143600480360381019061013e91906113ec565b610554565b6040516101509190611473565b60405180910390f35b34801561016557600080fd5b50610180600480360381019061017b9190611278565b6105b8565b005b34801561018e57600080fd5b506101a960048036038101906101a4919061148e565b6108f0565b005b6101c560048036038101906101c09190611359565b610b2f565b005b3480156101d357600080fd5b506101dc610da8565b6040516101e99190611395565b60405180910390f35b3480156101fe57600080fd5b5061021960048036038101906102149190611359565b610dae565b60405161022b969594939291906115f4565b60405180910390f35b600360009054906101000a900473ffffffffffffffffffffffffffffffffffffffff1673ffffffffffffffffffffffffffffffffffffffff163373ffffffffffffffffffffffffffffffffffffffff16146102c4576040517f08c379a00000000000000000000000000000000000000000000000000000000081526004016102bb906116dc565b60405180910390fd5b8560025481111561030a576040517f08c379a000000000000000000000000000000000000000000000000000000000815260040161030190611748565b60405180910390fd5b6103c0600080838152602001908152602001600020600001805461032d90611797565b80601f016020809104026020016040519081016040528092919081815260200182805461035990611797565b80156103a65780601f1061037b576101008083540402835291602001916103a6565b820191906000526020600020905b81548152906001019060200180831161038957829003601f168201915b505050505060405180602001604052806000815250610554565b15610400576040517f08c379a00000000000000000000000000000000000000000000000000000000081526004016103f790611815565b60405180910390fd5b600080600089815260200190815260200160002090508681600001908051906020019061042e929190610faf565b5085816001019080519060200190610447929190610faf565b5084816002019080519060200190610460929190610faf565b50838160040160006101000a81548160ff021916908315150217905550828160040160016101000a81548173ffffffffffffffffffffffffffffffffffffffff021916908373ffffffffffffffffffffffffffffffffffffffff160217905550877fcabf5378f70b6fa91dadb4f722ce9ce8047636b7bed47d649058a7f2181d30fb88888888886040516104f8959493929190611835565b60405180910390a25050505050505050565b6001818154811061051a57600080fd5b906000526020600020016000915090505481565b600360009054906101000a900473ffffffffffffffffffffffffffffffffffffffff1681565b6000808360405160200161056891906118d9565b60405160208183030381529060405280519060200120905060008360405160200161059391906118d9565b6040516020818303038152906040528051906020012090508082149250505092915050565b600360009054906101000a900473ffffffffffffffffffffffffffffffffffffffff1673ffffffffffffffffffffffffffffffffffffffff163373ffffffffffffffffffffffffffffffffffffffff1614610648576040517f08c379a000000000000000000000000000000000000000000000000000000000815260040161063f906116dc565b60405180910390fd5b8560025481111561068e576040517f08c379a000000000000000000000000000000000000000000000000000000000815260040161068590611748565b60405180910390fd5b61074460008083815260200190815260200160002060000180546106b190611797565b80601f01602080910402602001604051908101604052809291908181526020018280546106dd90611797565b801561072a5780601f106106ff5761010080835404028352916020019161072a565b820191906000526020600020905b81548152906001019060200180831161070d57829003601f168201915b505050505060405180602001604052806000815250610554565b15610784576040517f08c379a000000000000000000000000000000000000000000000000000000000815260040161077b90611815565b60405180910390fd5b60008082815260200190815260200160002060040160009054906101000a900460ff166107e6576040517f08c379a00000000000000000000000000000000000000000000000000000000081526004016107dd9061193c565b60405180910390fd5b6000806000898152602001908152602001600020905086816000019080519060200190610814929190610faf565b508581600101908051906020019061082d929190610faf565b5084816002019080519060200190610846929190610faf565b50838160040160006101000a81548160ff021916908315150217905550828160040160016101000a81548173ffffffffffffffffffffffffffffffffffffffff021916908373ffffffffffffffffffffffffffffffffffffffff160217905550877fcabf5378f70b6fa91dadb4f722ce9ce8047636b7bed47d649058a7f2181d30fb88888888886040516108de959493929190611835565b60405180910390a25050505050505050565b600360009054906101000a900473ffffffffffffffffffffffffffffffffffffffff1673ffffffffffffffffffffffffffffffffffffffff163373ffffffffffffffffffffffffffffffffffffffff1614610980576040517f08c379a0000000000000000000000000000000000000000000000000000000008152600401610977906116dc565b60405180910390fd5b6000600260008154809291906109959061198b565b9190505590506040518060c001604052808781526020018681526020018581526020016000815260200184151581526020018373ffffffffffffffffffffffffffffffffffffffff168152506000808381526020019081526020016000206000820151816000019080519060200190610a0f929190610faf565b506020820151816001019080519060200190610a2c929190610faf565b506040820151816002019080519060200190610a49929190610faf565b506060820151816003015560808201518160040160006101000a81548160ff02191690831515021790555060a08201518160040160016101000a81548173ffffffffffffffffffffffffffffffffffffffff021916908373ffffffffffffffffffffffffffffffffffffffff1602179055509050506001819080600181540180825580915050600190039060005260206000200160009091909190915055807f4e60d00033c04c1f99296ca733c699390b575b781e2783fdc312c71be62af4138787878787604051610b1f959493929190611835565b60405180910390a2505050505050565b80600254811115610b75576040517f08c379a0000000000000000000000000000000000000000000000000000000008152600401610b6c90611748565b60405180910390fd5b610c2b6000808381526020019081526020016000206000018054610b9890611797565b80601f0160208091040260200160405190810160405280929190818152602001828054610bc490611797565b8015610c115780601f10610be657610100808354040283529160200191610c11565b820191906000526020600020905b815481529060010190602001808311610bf457829003601f168201915b505050505060405180602001604052806000815250610554565b15610c6b576040517f08c379a0000000000000000000000000000000000000000000000000000000008152600401610c6290611815565b60405180910390fd5b60008082815260200190815260200160002060040160009054906101000a900460ff16610ccd576040517f08c379a0000000000000000000000000000000000000000000000000000000008152600401610cc49061193c565b60405180910390fd5b600080600084815260200190815260200160002090508060040160019054906101000a900473ffffffffffffffffffffffffffffffffffffffff1673ffffffffffffffffffffffffffffffffffffffff166108fc349081150290604051600060405180830381858888f19350505050158015610d4d573d6000803e3d6000fd5b5034816003016000828254610d6291906119d4565b92505081905550827fe555da28bdb778f65d22794d88927ebaeca03f7de9d1b7d39245bc8fb5ca078a3334604051610d9b929190611a2a565b60405180910390a2505050565b60025481565b6000602052806000526040600020600091509050806000018054610dd190611797565b80601f0160208091040260200160405190810160405280929190818152602001828054610dfd90611797565b8015610e4a5780601f10610e1f57610100808354040283529160200191610e4a565b820191906000526020600020905b815481529060010190602001808311610e2d57829003601f168201915b505050505090806001018054610e5f90611797565b80601f0160208091040260200160405190810160405280929190818152602001828054610e8b90611797565b8015610ed85780601f10610ead57610100808354040283529160200191610ed8565b820191906000526020600020905b815481529060010190602001808311610ebb57829003601f168201915b505050505090806002018054610eed90611797565b80601f0160208091040260200160405190810160405280929190818152602001828054610f1990611797565b8015610f665780601f10610f3b57610100808354040283529160200191610f66565b820191906000526020600020905b815481529060010190602001808311610f4957829003601f168201915b5050505050908060030154908060040160009054906101000a900460ff16908060040160019054906101000a900473ffffffffffffffffffffffffffffffffffffffff16905086565b828054610fbb90611797565b90600052602060002090601f016020900481019282610fdd5760008555611024565b82601f10610ff657805160ff1916838001178555611024565b82800160010185558215611024579182015b82811115611023578251825591602001919060010190611008565b5b5090506110319190611035565b5090565b5b8082111561104e576000816000905550600101611036565b5090565b6000604051905090565b600080fd5b600080fd5b6000819050919050565b61107981611066565b811461108457600080fd5b50565b60008135905061109681611070565b92915050565b600080fd5b600080fd5b6000601f19601f8301169050919050565b7f4e487b7100000000000000000000000000000000000000000000000000000000600052604160045260246000fd5b6110ef826110a6565b810181811067ffffffffffffffff8211171561110e5761110d6110b7565b5b80604052505050565b6000611121611052565b905061112d82826110e6565b919050565b600067ffffffffffffffff82111561114d5761114c6110b7565b5b611156826110a6565b9050602081019050919050565b82818337600083830152505050565b600061118561118084611132565b611117565b9050828152602081018484840111156111a1576111a06110a1565b5b6111ac848285611163565b509392505050565b600082601f8301126111c9576111c861109c565b5b81356111d9848260208601611172565b91505092915050565b60008115159050919050565b6111f7816111e2565b811461120257600080fd5b50565b600081359050611214816111ee565b92915050565b600073ffffffffffffffffffffffffffffffffffffffff82169050919050565b60006112458261121a565b9050919050565b6112558161123a565b811461126057600080fd5b50565b6000813590506112728161124c565b92915050565b60008060008060008060c087890312156112955761129461105c565b5b60006112a389828a01611087565b965050602087013567ffffffffffffffff8111156112c4576112c3611061565b5b6112d089828a016111b4565b955050604087013567ffffffffffffffff8111156112f1576112f0611061565b5b6112fd89828a016111b4565b945050606087013567ffffffffffffffff81111561131e5761131d611061565b5b61132a89828a016111b4565b935050608061133b89828a01611205565b92505060a061134c89828a01611263565b9150509295509295509295565b60006020828403121561136f5761136e61105c565b5b600061137d84828501611087565b91505092915050565b61138f81611066565b82525050565b60006020820190506113aa6000830184611386565b92915050565b60006113bb8261121a565b9050919050565b6113cb816113b0565b82525050565b60006020820190506113e660008301846113c2565b92915050565b600080604083850312156114035761140261105c565b5b600083013567ffffffffffffffff81111561142157611420611061565b5b61142d858286016111b4565b925050602083013567ffffffffffffffff81111561144e5761144d611061565b5b61145a858286016111b4565b9150509250929050565b61146d816111e2565b82525050565b60006020820190506114886000830184611464565b92915050565b600080600080600060a086880312156114aa576114a961105c565b5b600086013567ffffffffffffffff8111156114c8576114c7611061565b5b6114d4888289016111b4565b955050602086013567ffffffffffffffff8111156114f5576114f4611061565b5b611501888289016111b4565b945050604086013567ffffffffffffffff81111561152257611521611061565b5b61152e888289016111b4565b935050606061153f88828901611205565b925050608061155088828901611263565b9150509295509295909350565b600081519050919050565b600082825260208201905092915050565b60005b8381101561159757808201518184015260208101905061157c565b838111156115a6576000848401525b50505050565b60006115b78261155d565b6115c18185611568565b93506115d1818560208601611579565b6115da816110a6565b840191505092915050565b6115ee8161123a565b82525050565b600060c082019050818103600083015261160e81896115ac565b9050818103602083015261162281886115ac565b9050818103604083015261163681876115ac565b90506116456060830186611386565b6116526080830185611464565b61165f60a08301846115e5565b979650505050505050565b7f4f6e6c7920746865206f776e65722063616e20616464206e657720636861726960008201527f746965732e000000000000000000000000000000000000000000000000000000602082015250565b60006116c6602583611568565b91506116d18261166a565b604082019050919050565b600060208201905081810360008301526116f5816116b9565b9050919050565b7f496e76616c696420636861726974792049440000000000000000000000000000600082015250565b6000611732601283611568565b915061173d826116fc565b602082019050919050565b6000602082019050818103600083015261176181611725565b9050919050565b7f4e487b7100000000000000000000000000000000000000000000000000000000600052602260045260246000fd5b600060028204905060018216806117af57607f821691505b602082108114156117c3576117c2611768565b5b50919050565b7f4368617269747920646f6573206e6f7420657869737400000000000000000000600082015250565b60006117ff601683611568565b915061180a826117c9565b602082019050919050565b6000602082019050818103600083015261182e816117f2565b9050919050565b600060a082019050818103600083015261184f81886115ac565b9050818103602083015261186381876115ac565b9050818103604083015261187781866115ac565b90506118866060830185611464565b61189360808301846115e5565b9695505050505050565b600081905092915050565b60006118b38261155d565b6118bd818561189d565b93506118cd818560208601611579565b80840191505092915050565b60006118e582846118a8565b915081905092915050565b7f43686172697479206973206e6f74206163746976650000000000000000000000600082015250565b6000611926601583611568565b9150611931826118f0565b602082019050919050565b6000602082019050818103600083015261195581611919565b9050919050565b7f4e487b7100000000000000000000000000000000000000000000000000000000600052601160045260246000fd5b600061199682611066565b91507fffffffffffffffffffffffffffffffffffffffffffffffffffffffffffffffff8214156119c9576119c861195c565b5b600182019050919050565b60006119df82611066565b91506119ea83611066565b9250827fffffffffffffffffffffffffffffffffffffffffffffffffffffffffffffffff03821115611a1f57611a1e61195c565b5b828201905092915050565b6000604082019050611a3f60008301856113c2565b611a4c6020830184611386565b939250505056fea264697066735822122012660494b05916d28844d6aaf0d8313a0aca53fc72e88efc0e64ae7b70d6c70564736f6c63430008090033",
  "linkReferences": {},
  "deployedLinkReferences": {}
}